:100000000A128A11E52F00308A000408840A820748
:100010000034313431343134313436343034003416
:100020000034533469347334743465346D3461345A
:10003000203442346C346F34713475346534613437
:1000400064346F34003443346C3461347634653452
:10005000203449346E3463346F347234723465340E
:10006000633474346134003443346C346134763432
:100070006534203443346F347234723465346334FD
:1000800074346134003450347234653473347334EE
:100090002034613420344B346534793400344234B4
:1000A000693465346E34763465346E34693464345E
:0400B0006F34003475
:1008C400F030FF007F08831603138605F030FF0025
:1008D4007F0886048113080001300A128A1110254A
:1008E4000A128A110830F400C930F300F30B782C93
:1008F400F40B782C7D2C08003134323433344134F9
:100904003434353436344234373438343934433477
:100914002A343034233444347E088A007F08820029
:100924008E240A128A118000840A04087D060319A1
:100934000034FF0A0319FE0A922C0130F002003041
:10094400031CF103F102700A0319710A0319080068
:100954000330F3009730F200F20BAE2CF30BAE2C05
:10096400B32C9F2CF600023076020318BD2C7408B9
:100974000F398038C02C74080F39C038F700770855
:100984000A128A1110250A128A1175080A128A118C
:10099400CC240800F300730884000A128A1103208F
:1009A4000A128A11003A03190800730884000A1213
:1009B4008A1103200A128A110A128A1146250A1280
:1009C4008A110130FF007F08F307CD2C831603132F
:1009D40087012730F400F530F300F30BEF2CF40B10
:1009E400EF2C02300A128A1110250A128A112830BB
:1009F4000A128A1110250A128A1101300A128A1168
:100A040010250A128A110C300A128A1110250A12B2
:100A14008A1106300A128A1110250800F200F030FB
:100A24007205F0008312031307080F39700487005E
:100A34000710871400008312031387100330F1009A
:100A44009730F000F00B242DF10B242D292D720882
:100A5400F00004300310F00DFF3E031D2C2D831213
:100A6400031307080F3970048700871400008312EA
:100A7400031387100830F100C930F000F00B402D4B
:100A8400F10B402D452D0800F200F0307205F00006
:100A94008312031307080F3970048700071487149F
:100AA40000008312031387100330F1009730F00025
:100AB400F00B5A2DF10B5A2D5F2D7208F000043003
:100AC4000310F00DFF3E031D622D8312031307086C
:100AD4000F397004870087140000831203138710F2
:100AE4000830F100C930F000F00B762DF10B762DB3
:100AF4007B2D0800F5000130F1020030031CF203E5
:100B0400F202710A0319720A0319B62D75088400DA
:100B14008313000803199C2D700884000A128A119B
:100B240003200A128A11F300750884000008730672
:100B34000319AD2D700884000A128A110320F300F2
:100B4400750884000008F40073087402F000F101D1
:100B5400031CF10308000130FF007F08F507013092
:100B6400FF007F08F0077D2DF001F10108008312DA
:100B74000313A200A001A10179082102031DC42DC1
:100B8400780820020318080056302206031DCC2DD5
:100B94000514D62D41302206031DD22D8514D62DE1
:100BA40052302206031905157508F1007408F00087
:100BB4000A128A119F240A128A11563083120313CF
:100BC4002206031DE72D0510F12D41302206031DD9
:100BD400ED2D8510F12D52302206031905117708E9
:100BE400F1007608F0000A128A119F240A128A1171
:100BF40076087407FA0077080318770A7507FB006C
:100C04007A0883120313A0070318A10A7B08A1071B
:100C1400BE2D203084003930F0000408F10010307B
:100C2400F2007008840083130008F300F00A7108CE
:100C3400840073088000F10AF20B132EB001B10195
:100C4400B2018312031331083204031D452EFE3012
:100C540086004230F000F00B2D2E000083120313A7
:100C6400061A392E2008B000302E2108B000861A4A
:100C74003E2E372E2208B000061B432E3C2E23089E
:100C8400B000861F412E31033204031D652EFD3052
:100C940086004230F000F00B4D2E00008312031347
:100CA400061A592E2408B000502E2508B000861AC2
:100CB4005E2E572E2608B000061B632E5C2E2708D6
:100CC400B000861F612E023031063204031D862EC9
:100CD400FB3086004230F000F00B6E2E00008312D1
:100CE4000313061A7A2E2808B000712E2908B000C2
:100CF400861A7F2E782E2A08B000061B842E7D2E9D
:100D04002B08B000861F822E033031063204031DE7
:100D1400A72EF73086004230F000F00B8F2E000033
:100D240083120313061A9B2E2C08B000922E2D0852
:100D3400B000861AA02E992E2E08B000061BA52EF0
:100D44009E2E2F08B000861FA32E0130B107031872
:100D5400B20A0030B2073208803AFF0080307F02C6
:100D6400031DB62E04303102031C232E83120313F9
:100D740030080800713083168F00F830850003179F
:100D840089018801831203138501663083120313DA
:100D9400B5007630B400C030B300B30BCF2EB40B23
:100DA400CF2EB50BCF2E00000A128A11E8240A12A6
:100DB4008A110A128A1162240A128A110A128A11E9
:100DC4006E240A128A11F4014730F50000300A1229
:100DD4008A11B4240A128A11153083120313B50040
:100DE4004B30B400BD30B300B30BF62EB40BF62E6B
:100DF400B50BF62EFD2E0A128A116E240A128A11E0
:100E0400F4013B30F50000300A128A11B4240A12AE
:100E14008A11C0300A128A1110250A128A11362F3B
:100E24003808B600B7012A300A128A1146250A1278
:100E34008A11831203134B084C3E84003808831331
:100E440080000130FF007F08CB07023083120313B8
:100E5400B5000430B400B930B300B30B2F2FB40B7A
:100E64002F2FB50B2F2F362F0730831203134B026E
:100E740003184E2F0A128A110B260A128A11B8007F
:100E840038080319272F23303806031D122F4B0867
:100E94004C3E8400831380010130F0000630F100E1
:100EA4000030F2004C300A128A117C250A128A1191
:100EB40070087104031D7A2F0A128A116E240A1213
:100EC4008A11F4012C30F50000300A128A11B4247E
:100ED4000A128A11F430F4000130F500F430F600FF
:100EE4000130F700B830F8000B30F9005630C62F47
:100EF4000130C9070318CA0A0030CA070A128A1146
:100F04006E240A128A11F4011B30F50000300A1213
:100F14008A11B4240A128A112C30F4000130F5002D
:100F2400BC30F6000230F700D030F8000730F9008A
:100F340041300A128A11B9250A128A114A08803AE4
:100F4400FF0080307F02031DA92F03304902031CD8
:100F5400CD2F0A128A116E240A128A11F401093063
:100F6400F50000300A128A11B4240A128A112C30B6
:100F7400F4000130F500F430F6000130F7004030A1
:100F8400F8001F30F90052300A128A11B9250A12EA
:100F94008A11C901CA01153083120313B5004B30FD
:100FA400B400BD30B300B30BD52FB40BD52FB50BA4
:100FB400D52FDC2F0A128A116E240A128A11831289
:100FC4000313CB01FD2E83134930FD000430FE00D2
:100FD4007E30FF00393084000A128A119224C9013C
:100FE400CA01CB01CC01CD01CE01CF01D001D10189
:0C0FF400D201D30183010A128A11BC2E25
:04400E00D520FF3F7B
:00000001FF
